{
  "contractName": "EthOptionsFactory",
  "abi": [
    {
      "constant": false,
      "inputs": [],
      "name": "renounceOwnership",
      "outputs": [],
      "payable": false,
      "stateMutability": "nonpayable",
      "type": "function"
    },
    {
      "constant": true,
      "inputs": [],
      "name": "owner",
      "outputs": [
        {
          "name": "",
          "type": "address"
        }
      ],
      "payable": false,
      "stateMutability": "view",
      "type": "function"
    },
    {
      "constant": true,
      "inputs": [],
      "name": "isOwner",
      "outputs": [
        {
          "name": "",
          "type": "bool"
        }
      ],
      "payable": false,
      "stateMutability": "view",
      "type": "function"
    },
    {
      "constant": false,
      "inputs": [
        {
          "name": "newOwner",
          "type": "address"
        }
      ],
      "name": "transferOwnership",
      "outputs": [],
      "payable": false,
      "stateMutability": "nonpayable",
      "type": "function"
    },
    {
      "inputs": [
        {
          "name": "_optionAddressToken",
          "type": "address"
        }
      ],
      "payable": false,
      "stateMutability": "nonpayable",
      "type": "constructor"
    },
    {
      "anonymous": false,
      "inputs": [
        {
          "indexed": true,
          "name": "previousOwner",
          "type": "address"
        },
        {
          "indexed": true,
          "name": "newOwner",
          "type": "address"
        }
      ],
      "name": "OwnershipTransferred",
      "type": "event"
    },
    {
      "constant": false,
      "inputs": [
        {
          "name": "_priceOracleAddress",
          "type": "address"
        }
      ],
      "name": "setPriceOracleAddress",
      "outputs": [],
      "payable": false,
      "stateMutability": "nonpayable",
      "type": "function"
    },
    {
      "constant": false,
      "inputs": [
        {
          "name": "_maker",
          "type": "address"
        },
        {
          "name": "_taker",
          "type": "address"
        },
        {
          "name": "_qty",
          "type": "uint256"
        },
        {
          "name": "_strikePrice",
          "type": "uint256"
        },
        {
          "name": "_baseToken",
          "type": "address"
        },
        {
          "name": "_quoteToken",
          "type": "address"
        },
        {
          "name": "_expiry",
          "type": "uint256"
        }
      ],
      "name": "createOption",
      "outputs": [],
      "payable": false,
      "stateMutability": "nonpayable",
      "type": "function"
    },
    {
      "constant": false,
      "inputs": [
        {
          "name": "_tokenId",
          "type": "uint256"
        },
        {
          "name": "_qty",
          "type": "uint256"
        }
      ],
      "name": "exerciseOption",
      "outputs": [],
      "payable": false,
      "stateMutability": "nonpayable",
      "type": "function"
    },
    {
      "constant": true,
      "inputs": [],
      "name": "getLatestTokenId",
      "outputs": [
        {
          "name": "",
          "type": "uint256"
        }
      ],
      "payable": false,
      "stateMutability": "view",
      "type": "function"
    },
    {
      "constant": true,
      "inputs": [
        {
          "name": "tokenId",
          "type": "uint256"
        }
      ],
      "name": "getOptionDetails",
      "outputs": [
        {
          "name": "",
          "type": "address"
        },
        {
          "name": "",
          "type": "address"
        },
        {
          "name": "",
          "type": "uint256"
        },
        {
          "name": "",
          "type": "uint256"
        },
        {
          "name": "",
          "type": "address"
        },
        {
          "name": "",
          "type": "address"
        },
        {
          "name": "",
          "type": "uint256"
        }
      ],
      "payable": false,
      "stateMutability": "view",
      "type": "function"
    },
    {
      "constant": true,
      "inputs": [],
      "name": "getEscrowAddress",
      "outputs": [
        {
          "name": "",
          "type": "address"
        }
      ],
      "payable": false,
      "stateMutability": "view",
      "type": "function"
    },
    {
      "constant": true,
      "inputs": [],
      "name": "getPriceOracleAddress",
      "outputs": [
        {
          "name": "",
          "type": "address"
        }
      ],
      "payable": false,
      "stateMutability": "view",
      "type": "function"
    }
  ],
  "bytecode": "0x60806040523480156200001157600080fd5b5060405160208062003816833981018060405260208110156200003357600080fd5b8101908080519060200190929190505050336000806101000a81548173ffffffffffffffffffffffffffffffffffffffff021916908373ffffffffffffffffffffffffffffffffffffffff1602179055506000809054906101000a900473ffffffffffffffffffffffffffffffffffffffff1673ffffffffffffffffffffffffffffffffffffffff16600073ffffffffffffffffffffffffffffffffffffffff167f8be0079c531659141344cd1fd0a4f28419497f9722a3daafe3b4186f6b6457e060405160405180910390a380600360006101000a81548173ffffffffffffffffffffffffffffffffffffffff021916908373ffffffffffffffffffffffffffffffffffffffff1602179055506040516200014f90620001bc565b604051809103906000f0801580156200016c573d6000803e3d6000fd5b50600160006101000a81548173ffffffffffffffffffffffffffffffffffffffff021916908373ffffffffffffffffffffffffffffffffffffffff160217905550600160028190555050620001ca565b610edc806200293a83390190565b61276080620001da6000396000f3fe608060405234801561001057600080fd5b50600436106100a95760003560e01c8063715018a611610071578063715018a6146103385780637c9c6712146103425780638b5350cc1461037a5780638da5cb5b146103c45780638f32d59b1461040e578063f2fde38b14610430576100a9565b8063122fd48a146100ae57806323e5e212146100f857806325d112a91461013c5780633be146fe1461015a578063616a703e14610276575b600080fd5b6100b6610474565b604051808273ffffffffffffffffffffffffffffffffffffffff1673ffffffffffffffffffffffffffffffffffffffff16815260200191505060405180910390f35b61013a6004803603602081101561010e57600080fd5b81019080803573ffffffffffffffffffffffffffffffffffffffff16906020019092919050505061049e565b005b61014461055c565b6040518082815260200191505060405180910390f35b6101866004803603602081101561017057600080fd5b8101908080359060200190929190505050610623565b604051808873ffffffffffffffffffffffffffffffffffffffff1673ffffffffffffffffffffffffffffffffffffffff1681526020018773ffffffffffffffffffffffffffffffffffffffff1673ffffffffffffffffffffffffffffffffffffffff1681526020018681526020018581526020018473ffffffffffffffffffffffffffffffffffffffff1673ffffffffffffffffffffffffffffffffffffffff1681526020018373ffffffffffffffffffffffffffffffffffffffff1673ffffffffffffffffffffffffffffffffffffffff16815260200182815260200197505050505050505060405180910390f35b610336600480360360e081101561028c57600080fd5b81019080803573ffffffffffffffffffffffffffffffffffffffff169060200190929190803573ffffffffffffffffffffffffffffffffffffffff1690602001909291908035906020019092919080359060200190929190803573ffffffffffffffffffffffffffffffffffffffff169060200190929190803573ffffffffffffffffffffffffffffffffffffffff16906020019092919080359060200190929190505050610809565b005b610340610b8f565b005b6103786004803603604081101561035857600080fd5b810190808035906020019092919080359060200190929190505050610cc8565b005b6103826110ed565b604051808273ffffffffffffffffffffffffffffffffffffffff1673ffffffffffffffffffffffffffffffffffffffff16815260200191505060405180910390f35b6103cc611117565b604051808273ffffffffffffffffffffffffffffffffffffffff1673ffffffffffffffffffffffffffffffffffffffff16815260200191505060405180910390f35b610416611140565b604051808215151515815260200191505060405180910390f35b6104726004803603602081101561044657600080fd5b81019080803573ffffffffffffffffffffffffffffffffffffffff169060200190929190505050611197565b005b6000600160009054906101000a900473ffffffffffffffffffffffffffffffffffffffff16905090565b6104a6611140565b610518576040517f08c379a00000000000000000000000000000000000000000000000000000000081526004018080602001828103825260208152602001807f4f776e61626c653a2063616c6c6572206973206e6f7420746865206f776e657281525060200191505060405180910390fd5b80600460006101000a81548173ffffffffffffffffffffffffffffffffffffffff021916908373ffffffffffffffffffffffffffffffffffffffff16021790555050565b6000600360009054906101000a900473ffffffffffffffffffffffffffffffffffffffff1673ffffffffffffffffffffffffffffffffffffffff163373ffffffffffffffffffffffffffffffffffffffff1614610604576040517f08c379a000000000000000000000000000000000000000000000000000000000815260040180806020018281038252602e8152602001806125f0602e913960400191505060405180910390fd5b61061a600160025461121d90919063ffffffff16565b50600254905090565b6000806000806000806000610636612534565b600560008a81526020019081526020016000206040518060e00160405290816000820160009054906101000a900473ffffffffffffffffffffffffffffffffffffffff1673ffffffffffffffffffffffffffffffffffffffff1673ffffffffffffffffffffffffffffffffffffffff1681526020016001820160009054906101000a900473ffffffffffffffffffffffffffffffffffffffff1673ffffffffffffffffffffffffffffffffffffffff1673ffffffffffffffffffffffffffffffffffffffff16815260200160028201548152602001600382015481526020016004820160009054906101000a900473ffffffffffffffffffffffffffffffffffffffff1673ffffffffffffffffffffffffffffffffffffffff1673ffffffffffffffffffffffffffffffffffffffff1681526020016005820160009054906101000a900473ffffffffffffffffffffffffffffffffffffffff1673ffffffffffffffffffffffffffffffffffffffff1673ffffffffffffffffffffffffffffffffffffffff1681526020016006820154815250509050806000015181602001518260400151836060015184608001518560a001518660c00151975097509750975097509750975050919395979092949650565b6108148386896112a5565b6108208286888a611422565b610892576040517f08c379a000000000000000000000000000000000000000000000000000000000815260040180806020018281038252601d8152602001807f4661696c6564206174207472616e73666572206f66207072656d69756d00000081525060200191505060405180910390fd5b600360009054906101000a900473ffffffffffffffffffffffffffffffffffffffff1673ffffffffffffffffffffffffffffffffffffffff1663156e29f687600254886040518463ffffffff1660e01b8152600401808473ffffffffffffffffffffffffffffffffffffffff1673ffffffffffffffffffffffffffffffffffffffff1681526020018381526020018281526020019350505050602060405180830381600087803b15801561094557600080fd5b505af1158015610959573d6000803e3d6000fd5b505050506040513d602081101561096f57600080fd5b810190808051906020019092919050505050610989612534565b6040518060e001604052808973ffffffffffffffffffffffffffffffffffffffff1681526020018873ffffffffffffffffffffffffffffffffffffffff1681526020018781526020018681526020018573ffffffffffffffffffffffffffffffffffffffff1681526020018473ffffffffffffffffffffffffffffffffffffffff1681526020018381525090508060056000600254815260200190815260200160002060008201518160000160006101000a81548173ffffffffffffffffffffffffffffffffffffffff021916908373ffffffffffffffffffffffffffffffffffffffff16021790555060208201518160010160006101000a81548173ffffffffffffffffffffffffffffffffffffffff021916908373ffffffffffffffffffffffffffffffffffffffff160217905550604082015181600201556060820151816003015560808201518160040160006101000a81548173ffffffffffffffffffffffffffffffffffffffff021916908373ffffffffffffffffffffffffffffffffffffffff16021790555060a08201518160050160006101000a81548173ffffffffffffffffffffffffffffffffffffffff021916908373ffffffffffffffffffffffffffffffffffffffff16021790555060c08201518160060155905050610b7f600160025461121d90919063ffffffff16565b6002819055505050505050505050565b610b97611140565b610c09576040517f08c379a00000000000000000000000000000000000000000000000000000000081526004018080602001828103825260208152602001807f4f776e61626c653a2063616c6c6572206973206e6f7420746865206f776e657281525060200191505060405180910390fd5b600073ffffffffffffffffffffffffffffffffffffffff166000809054906101000a900473ffffffffffffffffffffffffffffffffffffffff1673ffffffffffffffffffffffffffffffffffffffff167f8be0079c531659141344cd1fd0a4f28419497f9722a3daafe3b4186f6b6457e060405160405180910390a360008060006101000a81548173ffffffffffffffffffffffffffffffffffffffff021916908373ffffffffffffffffffffffffffffffffffffffff160217905550565b610cd0612534565b600560008481526020019081526020016000206040518060e00160405290816000820160009054906101000a900473ffffffffffffffffffffffffffffffffffffffff1673ffffffffffffffffffffffffffffffffffffffff1673ffffffffffffffffffffffffffffffffffffffff1681526020016001820160009054906101000a900473ffffffffffffffffffffffffffffffffffffffff1673ffffffffffffffffffffffffffffffffffffffff1673ffffffffffffffffffffffffffffffffffffffff16815260200160028201548152602001600382015481526020016004820160009054906101000a900473ffffffffffffffffffffffffffffffffffffffff1673ffffffffffffffffffffffffffffffffffffffff1673ffffffffffffffffffffffffffffffffffffffff1681526020016005820160009054906101000a900473ffffffffffffffffffffffffffffffffffffffff1673ffffffffffffffffffffffffffffffffffffffff1673ffffffffffffffffffffffffffffffffffffffff1681526020016006820154815250509050610e708383611524565b610ee2576040517f08c379a000000000000000000000000000000000000000000000000000000000815260040180806020018281038252601a8152602001807f4f7074696f6e2063616e6e6f742062652065786572636973656400000000000081525060200191505060405180910390fd5b6000610efb83836060015161191d90919063ffffffff16565b9050610f10818360a0015184602001516119a3565b610f27826000015183608001518460400151611b09565b610f318484611c74565b8160a0015173ffffffffffffffffffffffffffffffffffffffff166323b872dd83602001518460000151846040518463ffffffff1660e01b8152600401808473ffffffffffffffffffffffffffffffffffffffff1673ffffffffffffffffffffffffffffffffffffffff1681526020018373ffffffffffffffffffffffffffffffffffffffff1673ffffffffffffffffffffffffffffffffffffffff1681526020018281526020019350505050602060405180830381600087803b158015610ff857600080fd5b505af115801561100c573d6000803e3d6000fd5b505050506040513d602081101561102257600080fd5b81019080805190602001909291905050506110a5576040517f08c379a000000000000000000000000000000000000000000000000000000000815260040180806020018281038252601e8152602001807f5472616e73666572206f662071756f746520746f6b656e206661696c6564000081525060200191505060405180910390fd5b6110bd82608001518484602001518560000151611e5b565b6110e683600560008781526020019081526020016000206002015461201f90919063ffffffff16565b5050505050565b6000600460009054906101000a900473ffffffffffffffffffffffffffffffffffffffff16905090565b60008060009054906101000a900473ffffffffffffffffffffffffffffffffffffffff16905090565b60008060009054906101000a900473ffffffffffffffffffffffffffffffffffffffff1673ffffffffffffffffffffffffffffffffffffffff163373ffffffffffffffffffffffffffffffffffffffff1614905090565b61119f611140565b611211576040517f08c379a00000000000000000000000000000000000000000000000000000000081526004018080602001828103825260208152602001807f4f776e61626c653a2063616c6c6572206973206e6f7420746865206f776e657281525060200191505060405180910390fd5b61121a816120a8565b50565b60008082840190508381101561129b576040517f08c379a000000000000000000000000000000000000000000000000000000000815260040180806020018281038252601b8152602001807f536166654d6174683a206164646974696f6e206f766572666c6f77000000000081525060200191505060405180910390fd5b8091505092915050565b6112d3838383600160009054906101000a900473ffffffffffffffffffffffffffffffffffffffff16611422565b611328576040517f08c379a000000000000000000000000000000000000000000000000000000000815260040180806020018281038252602381526020018061261e6023913960400191505060405180910390fd5b600160009054906101000a900473ffffffffffffffffffffffffffffffffffffffff1673ffffffffffffffffffffffffffffffffffffffff16638340f5498285856040518463ffffffff1660e01b8152600401808473ffffffffffffffffffffffffffffffffffffffff1673ffffffffffffffffffffffffffffffffffffffff1681526020018373ffffffffffffffffffffffffffffffffffffffff1673ffffffffffffffffffffffffffffffffffffffff1681526020018281526020019350505050600060405180830381600087803b15801561140557600080fd5b505af1158015611419573d6000803e3d6000fd5b50505050505050565b60008473ffffffffffffffffffffffffffffffffffffffff166323b872dd8484876040518463ffffffff1660e01b8152600401808473ffffffffffffffffffffffffffffffffffffffff1673ffffffffffffffffffffffffffffffffffffffff1681526020018373ffffffffffffffffffffffffffffffffffffffff1673ffffffffffffffffffffffffffffffffffffffff1681526020018281526020019350505050602060405180830381600087803b1580156114df57600080fd5b505af11580156114f3573d6000803e3d6000fd5b505050506040513d602081101561150957600080fd5b81019080805190602001909291905050509050949350505050565b600061152e612534565b600560008581526020019081526020016000206040518060e00160405290816000820160009054906101000a900473ffffffffffffffffffffffffffffffffffffffff1673ffffffffffffffffffffffffffffffffffffffff1673ffffffffffffffffffffffffffffffffffffffff1681526020016001820160009054906101000a900473ffffffffffffffffffffffffffffffffffffffff1673ffffffffffffffffffffffffffffffffffffffff1673ffffffffffffffffffffffffffffffffffffffff16815260200160028201548152602001600382015481526020016004820160009054906101000a900473ffffffffffffffffffffffffffffffffffffffff1673ffffffffffffffffffffffffffffffffffffffff1673ffffffffffffffffffffffffffffffffffffffff1681526020016005820160009054906101000a900473ffffffffffffffffffffffffffffffffffffffff1673ffffffffffffffffffffffffffffffffffffffff1673ffffffffffffffffffffffffffffffffffffffff1681526020016006820154815250509050600254841080156116d55750600084115b611747576040517f08c379a000000000000000000000000000000000000000000000000000000000815260040180806020018281038252600f8152602001807f696e76616c696420746f6b656e4944000000000000000000000000000000000081525060200191505060405180910390fd5b806020015173ffffffffffffffffffffffffffffffffffffffff163373ffffffffffffffffffffffffffffffffffffffff16146117cf576040517f08c379a00000000000000000000000000000000000000000000000000000000081526004018080602001828103825260238152602001806126a86023913960400191505060405180910390fd5b806040015183111561182c576040517f08c379a00000000000000000000000000000000000000000000000000000000081526004018080602001828103825260468152602001806126416046913960600191505060405180910390fd5b8060c0015142106118a5576040517f08c379a000000000000000000000000000000000000000000000000000000000815260040180806020018281038252601a8152602001807f4f7074696f6e2068617320616c7265616479206578706972656400000000000081525060200191505060405180910390fd5b80606001516118bc82608001518360a001516121ec565b11611912576040517f08c379a00000000000000000000000000000000000000000000000000000000081526004018080602001828103825260378152602001806126cb6037913960400191505060405180910390fd5b600191505092915050565b600080831415611930576000905061199d565b600082840290508284828161194157fe5b0414611998576040517f08c379a00000000000000000000000000000000000000000000000000000000081526004018080602001828103825260218152602001806126876021913960400191505060405180910390fd5b809150505b92915050565b828273ffffffffffffffffffffffffffffffffffffffff1663dd62ed3e83306040518363ffffffff1660e01b8152600401808373ffffffffffffffffffffffffffffffffffffffff1673ffffffffffffffffffffffffffffffffffffffff1681526020018273ffffffffffffffffffffffffffffffffffffffff1673ffffffffffffffffffffffffffffffffffffffff1681526020019250505060206040518083038186803b158015611a5557600080fd5b505afa158015611a69573d6000803e3d6000fd5b505050506040513d6020811015611a7f57600080fd5b81019080805190602001909291905050501015611b04576040517f08c379a00000000000000000000000000000000000000000000000000000000081526004018080602001828103825260168152602001807f496e73756666696369656e7420416c6c6f77616e63650000000000000000000081525060200191505060405180910390fd5b505050565b80600160009054906101000a900473ffffffffffffffffffffffffffffffffffffffff1673ffffffffffffffffffffffffffffffffffffffff1663e763ca1685856040518363ffffffff1660e01b8152600401808373ffffffffffffffffffffffffffffffffffffffff1673ffffffffffffffffffffffffffffffffffffffff1681526020018273ffffffffffffffffffffffffffffffffffffffff1673ffffffffffffffffffffffffffffffffffffffff1681526020019250505060206040518083038186803b158015611bdd57600080fd5b505afa158015611bf1573d6000803e3d6000fd5b505050506040513d6020811015611c0757600080fd5b81019080805190602001909291905050501015611c6f576040517f08c379a00000000000000000000000000000000000000000000000000000000081526004018080602001828103825260338152602001806127026033913960400191505060405180910390fd5b505050565b3073ffffffffffffffffffffffffffffffffffffffff16600360009054906101000a900473ffffffffffffffffffffffffffffffffffffffff1673ffffffffffffffffffffffffffffffffffffffff1663081812fc846040518263ffffffff1660e01b81526004018082815260200191505060206040518083038186803b158015611cfe57600080fd5b505afa158015611d12573d6000803e3d6000fd5b505050506040513d6020811015611d2857600080fd5b810190808051906020019092919050505073ffffffffffffffffffffffffffffffffffffffff1614611dc2576040517f08c379a00000000000000000000000000000000000000000000000000000000081526004018080602001828103825260208152602001807f636f6e747261637420646f6573206e6f74206861766520616c6c6f77616e636581525060200191505060405180910390fd5b600360009054906101000a900473ffffffffffffffffffffffffffffffffffffffff1673ffffffffffffffffffffffffffffffffffffffff1663b390c0ab83836040518363ffffffff1660e01b81526004018083815260200182815260200192505050600060405180830381600087803b158015611e3f57600080fd5b505af1158015611e53573d6000803e3d6000fd5b505050505050565b600160009054906101000a900473ffffffffffffffffffffffffffffffffffffffff1673ffffffffffffffffffffffffffffffffffffffff16630b620b81828487876040518563ffffffff1660e01b8152600401808573ffffffffffffffffffffffffffffffffffffffff1673ffffffffffffffffffffffffffffffffffffffff1681526020018473ffffffffffffffffffffffffffffffffffffffff1673ffffffffffffffffffffffffffffffffffffffff1681526020018373ffffffffffffffffffffffffffffffffffffffff1673ffffffffffffffffffffffffffffffffffffffff168152602001828152602001945050505050602060405180830381600087803b158015611f6c57600080fd5b505af1158015611f80573d6000803e3d6000fd5b505050506040513d6020811015611f9657600080fd5b8101908080519060200190929190505050612019576040517f08c379a000000000000000000000000000000000000000000000000000000000815260040180806020018281038252601b8152602001807f7472616e736665722066726f6d20657363726f77206661696c6564000000000081525060200191505060405180910390fd5b50505050565b600082821115612097576040517f08c379a000000000000000000000000000000000000000000000000000000000815260040180806020018281038252601e8152602001807f536166654d6174683a207375627472616374696f6e206f766572666c6f77000081525060200191505060405180910390fd5b600082840390508091505092915050565b600073ffffffffffffffffffffffffffffffffffffffff168173ffffffffffffffffffffffffffffffffffffffff16141561212e576040517f08c379a00000000000000000000000000000000000000000000000000000000081526004018080602001828103825260268152602001806125ca6026913960400191505060405180910390fd5b8073ffffffffffffffffffffffffffffffffffffffff166000809054906101000a900473ffffffffffffffffffffffffffffffffffffffff1673ffffffffffffffffffffffffffffffffffffffff167f8be0079c531659141344cd1fd0a4f28419497f9722a3daafe3b4186f6b6457e060405160405180910390a3806000806101000a81548173ffffffffffffffffffffffffffffffffffffffff021916908373ffffffffffffffffffffffffffffffffffffffff16021790555050565b60008073ffffffffffffffffffffffffffffffffffffffff16600460009054906101000a900473ffffffffffffffffffffffffffffffffffffffff1673ffffffffffffffffffffffffffffffffffffffff1614156122b2576040517f08c379a000000000000000000000000000000000000000000000000000000000815260040180806020018281038252601f8152602001807f5072696365204f7261636c652041646472657373206973206e6f74207365740081525060200191505060405180910390fd5b6000600460009054906101000a900473ffffffffffffffffffffffffffffffffffffffff1673ffffffffffffffffffffffffffffffffffffffff1663449e815d85426040518363ffffffff1660e01b8152600401808373ffffffffffffffffffffffffffffffffffffffff1673ffffffffffffffffffffffffffffffffffffffff16815260200182815260200192505050602060405180830381600087803b15801561235d57600080fd5b505af1158015612371573d6000803e3d6000fd5b505050506040513d602081101561238757600080fd5b810190808051906020019092919050505090506000600460009054906101000a900473ffffffffffffffffffffffffffffffffffffffff1673ffffffffffffffffffffffffffffffffffffffff1663449e815d85426040518363ffffffff1660e01b8152600401808373ffffffffffffffffffffffffffffffffffffffff1673ffffffffffffffffffffffffffffffffffffffff16815260200182815260200192505050602060405180830381600087803b15801561244557600080fd5b505af1158015612459573d6000803e3d6000fd5b505050506040513d602081101561246f57600080fd5b81019080805190602001909291905050509050600061249782846124a590919063ffffffff16565b905080935050505092915050565b600080821161251c576040517f08c379a000000000000000000000000000000000000000000000000000000000815260040180806020018281038252601a8152602001807f536166654d6174683a206469766973696f6e206279207a65726f00000000000081525060200191505060405180910390fd5b600082848161252757fe5b0490508091505092915050565b6040518060e00160405280600073ffffffffffffffffffffffffffffffffffffffff168152602001600073ffffffffffffffffffffffffffffffffffffffff1681526020016000815260200160008152602001600073ffffffffffffffffffffffffffffffffffffffff168152602001600073ffffffffffffffffffffffffffffffffffffffff16815260200160008152509056fe4f776e61626c653a206e6577206f776e657220697320746865207a65726f20616464726573734e6f6e2077686974656c697374656420616464726573732063616e6e6f742075706461746520746f6b656e2049445472616e73666572206f6620746f6b656e7320746f20657363726f77206661696c65644f7074696f6e2063616e27742062652065786572636973656420666f72207175616e746974792067726561746572207468616e206974207761732069737375656420666f722e536166654d6174683a206d756c7469706c69636174696f6e206f766572666c6f774f6e6c792074616b65722063616e2065786365726369736520746865206f7074696f6e4261736520546f6b656e20707269636520686173207374696c6c206e6f742063726f737365642074686520737472696b65207072696365496e73756666696369656e74206261736520746f6b656e73206279206d616b657220696e20657363726f77206163636f756e74a165627a7a7230582078f4a457ee965b8fcc6723b1167064ae6ea7a0cdf24e52d3ecdd67f586e632d200296080604052336000806101000a81548173ffffffffffffffffffffffffffffffffffffffff021916908373ffffffffffffffffffffffffffffffffffffffff1602179055506000809054906101000a900473ffffffffffffffffffffffffffffffffffffffff1673ffffffffffffffffffffffffffffffffffffffff16600073ffffffffffffffffffffffffffffffffffffffff167f8be0079c531659141344cd1fd0a4f28419497f9722a3daafe3b4186f6b6457e060405160405180910390a3610e0d806100cf6000396000f3fe60806040526004361061007b5760003560e01c80638f32d59b1161004e5780638f32d59b1461020f5780639499be761461023e578063e763ca16146102c3578063f2fde38b146103485761007b565b80630b620b8114610080578063715018a6146101335780638340f5491461014a5780638da5cb5b146101b8575b600080fd5b34801561008c57600080fd5b50610119600480360360808110156100a357600080fd5b81019080803573ffffffffffffffffffffffffffffffffffffffff169060200190929190803573ffffffffffffffffffffffffffffffffffffffff169060200190929190803573ffffffffffffffffffffffffffffffffffffffff16906020019092919080359060200190929190505050610399565b604051808215151515815260200191505060405180910390f35b34801561013f57600080fd5b506101486106ed565b005b6101b66004803603606081101561016057600080fd5b81019080803573ffffffffffffffffffffffffffffffffffffffff169060200190929190803573ffffffffffffffffffffffffffffffffffffffff16906020019092919080359060200190929190505050610826565b005b3480156101c457600080fd5b506101cd6109b4565b604051808273ffffffffffffffffffffffffffffffffffffffff1673ffffffffffffffffffffffffffffffffffffffff16815260200191505060405180910390f35b34801561021b57600080fd5b506102246109dd565b604051808215151515815260200191505060405180910390f35b34801561024a57600080fd5b506102ad6004803603604081101561026157600080fd5b81019080803573ffffffffffffffffffffffffffffffffffffffff169060200190929190803573ffffffffffffffffffffffffffffffffffffffff169060200190929190505050610a34565b6040518082815260200191505060405180910390f35b3480156102cf57600080fd5b50610332600480360360408110156102e657600080fd5b81019080803573ffffffffffffffffffffffffffffffffffffffff169060200190929190803573ffffffffffffffffffffffffffffffffffffffff169060200190929190505050610a59565b6040518082815260200191505060405180910390f35b34801561035457600080fd5b506103976004803603602081101561036b57600080fd5b81019080803573ffffffffffffffffffffffffffffffffffffffff169060200190929190505050610ae0565b005b60006103a36109dd565b610415576040517f08c379a00000000000000000000000000000000000000000000000000000000081526004018080602001828103825260208152602001807f4f776e61626c653a2063616c6c6572206973206e6f7420746865206f776e657281525060200191505060405180910390fd5b600160008673ffffffffffffffffffffffffffffffffffffffff1673ffffffffffffffffffffffffffffffffffffffff16815260200190815260200160002060008473ffffffffffffffffffffffffffffffffffffffff1673ffffffffffffffffffffffffffffffffffffffff16815260200190815260200160002054821115610507576040517f08c379a00000000000000000000000000000000000000000000000000000000081526004018080602001828103825260128152602001807f496e73756666696369656e742066756e6473000000000000000000000000000081525060200191505060405180910390fd5b8273ffffffffffffffffffffffffffffffffffffffff1663a9059cbb85846040518363ffffffff1660e01b8152600401808373ffffffffffffffffffffffffffffffffffffffff1673ffffffffffffffffffffffffffffffffffffffff16815260200182815260200192505050602060405180830381600087803b15801561058e57600080fd5b505af11580156105a2573d6000803e3d6000fd5b505050506040513d60208110156105b857600080fd5b81019080805190602001909291905050506105d257600080fd5b61066182600160008873ffffffffffffffffffffffffffffffffffffffff1673ffffffffffffffffffffffffffffffffffffffff16815260200190815260200160002060008673ffffffffffffffffffffffffffffffffffffffff1673ffffffffffffffffffffffffffffffffffffffff16815260200190815260200160002054610b6690919063ffffffff16565b600160008773ffffffffffffffffffffffffffffffffffffffff1673ffffffffffffffffffffffffffffffffffffffff16815260200190815260200160002060008573ffffffffffffffffffffffffffffffffffffffff1673ffffffffffffffffffffffffffffffffffffffff1681526020019081526020016000208190555060019050949350505050565b6106f56109dd565b610767576040517f08c379a00000000000000000000000000000000000000000000000000000000081526004018080602001828103825260208152602001807f4f776e61626c653a2063616c6c6572206973206e6f7420746865206f776e657281525060200191505060405180910390fd5b600073ffffffffffffffffffffffffffffffffffffffff166000809054906101000a900473ffffffffffffffffffffffffffffffffffffffff1673ffffffffffffffffffffffffffffffffffffffff167f8be0079c531659141344cd1fd0a4f28419497f9722a3daafe3b4186f6b6457e060405160405180910390a360008060006101000a81548173ffffffffffffffffffffffffffffffffffffffff021916908373ffffffffffffffffffffffffffffffffffffffff160217905550565b61082e6109dd565b6108a0576040517f08c379a00000000000000000000000000000000000000000000000000000000081526004018080602001828103825260208152602001807f4f776e61626c653a2063616c6c6572206973206e6f7420746865206f776e657281525060200191505060405180910390fd5b61092f81600160008673ffffffffffffffffffffffffffffffffffffffff1673ffffffffffffffffffffffffffffffffffffffff16815260200190815260200160002060008573ffffffffffffffffffffffffffffffffffffffff1673ffffffffffffffffffffffffffffffffffffffff16815260200190815260200160002054610bef90919063ffffffff16565b600160008573ffffffffffffffffffffffffffffffffffffffff1673ffffffffffffffffffffffffffffffffffffffff16815260200190815260200160002060008473ffffffffffffffffffffffffffffffffffffffff1673ffffffffffffffffffffffffffffffffffffffff16815260200190815260200160002081905550505050565b60008060009054906101000a900473ffffffffffffffffffffffffffffffffffffffff16905090565b60008060009054906101000a900473ffffffffffffffffffffffffffffffffffffffff1673ffffffffffffffffffffffffffffffffffffffff163373ffffffffffffffffffffffffffffffffffffffff1614905090565b6001602052816000526040600020602052806000526040600020600091509150505481565b6000600160008473ffffffffffffffffffffffffffffffffffffffff1673ffffffffffffffffffffffffffffffffffffffff16815260200190815260200160002060008373ffffffffffffffffffffffffffffffffffffffff1673ffffffffffffffffffffffffffffffffffffffff16815260200190815260200160002054905092915050565b610ae86109dd565b610b5a576040517f08c379a00000000000000000000000000000000000000000000000000000000081526004018080602001828103825260208152602001807f4f776e61626c653a2063616c6c6572206973206e6f7420746865206f776e657281525060200191505060405180910390fd5b610b6381610c77565b50565b600082821115610bde576040517f08c379a000000000000000000000000000000000000000000000000000000000815260040180806020018281038252601e8152602001807f536166654d6174683a207375627472616374696f6e206f766572666c6f77000081525060200191505060405180910390fd5b600082840390508091505092915050565b600080828401905083811015610c6d576040517f08c379a000000000000000000000000000000000000000000000000000000000815260040180806020018281038252601b8152602001807f536166654d6174683a206164646974696f6e206f766572666c6f77000000000081525060200191505060405180910390fd5b8091505092915050565b600073ffffffffffffffffffffffffffffffffffffffff168173ffffffffffffffffffffffffffffffffffffffff161415610cfd576040517f08c379a0000000000000000000000000000000000000000000000000000000008152600401808060200182810382526026815260200180610dbc6026913960400191505060405180910390fd5b8073ffffffffffffffffffffffffffffffffffffffff166000809054906101000a900473ffffffffffffffffffffffffffffffffffffffff1673ffffffffffffffffffffffffffffffffffffffff167f8be0079c531659141344cd1fd0a4f28419497f9722a3daafe3b4186f6b6457e060405160405180910390a3806000806101000a81548173ffffffffffffffffffffffffffffffffffffffff021916908373ffffffffffffffffffffffffffffffffffffffff1602179055505056fe4f776e61626c653a206e6577206f776e657220697320746865207a65726f2061646472657373a165627a7a72305820e44f57b07d2a3357d1540a7d4afcd2eff88ac05b47324cc120acc879f1abe7830029",
  "source": "pragma solidity ^0.5.0;\n\nimport \"@openzeppelin/contracts/math/SafeMath.sol\";\nimport \"./Escrow.sol\";\n// import \"./interfaces/IEscrow.sol\";\nimport \"./interfaces/IERC20.sol\";\nimport \"./interfaces/IERC721.sol\";\nimport \"./interfaces/IOracle.sol\";\nimport \"@openzeppelin/contracts/math/SafeMath.sol\";\nimport \"@openzeppelin/contracts/ownership/Ownable.sol\";\n\n\n/**\n * \n * @title : EthOptionsFactory\n * @dev Contract to manage the creation of Options, excercising Options\n * \n * \n */\n contract EthOptionsFactory is Ownable {\n     \n     using SafeMath for uint256;\n     address private EscrowAddress;\n     uint256 private tokenID;\n     address private optionTokenAddress; //erc721.sol\n     address private priceOracleAddress;\n     \n     struct option {\n        //  uint256 tokenID;\n         address maker;\n         address taker;\n         uint256 qty;\n         uint256 strikePrice;\n         address baseToken;\n         address quoteToken;\n         uint256 expiry;\n     } \n     \n     //tokenid to object mapping\n     mapping(uint256 => option) optionList;  \n     \n     constructor(address _optionAddressToken) public{\n         optionTokenAddress = _optionAddressToken;\n         EscrowAddress = address(new Escrow());\n         tokenID = 1;\n     }\n     \n     function setPriceOracleAddress(address _priceOracleAddress) public onlyOwner {\n         priceOracleAddress = _priceOracleAddress;\n     }\n     \n    function createOption( address _maker, address _taker, uint256 _qty, uint256 _strikePrice, address _baseToken, address _quoteToken,uint256 _expiry) public{\n        //tranfering base tokens to escrow\n        _transferToEscrow(_baseToken,_qty,_maker); //I am hoping that require inside the function will prevent it from proceeding. Needs to check this\n        //transfering premium to maker\n        require(_transferERC20(_quoteToken,_qty,_taker,_maker), \"Failed at transfer of premium\");\n        //TODO: Create option token and transfer them to taker.\n        IERC721(optionTokenAddress).mint(_taker, tokenID, _qty);\n        option memory tempOption =  option(_maker,_taker,_qty,_strikePrice,_baseToken,_quoteToken,_expiry);\n        optionList[tokenID] = tempOption;\n        tokenID = tokenID.add(1);\n    }\n    \n    function exerciseOption(uint256 _tokenId,uint256 _qty) public{\n        option memory tempOption = optionList[_tokenId];\n        require(_canBeExercised(_tokenId,_qty), \"Option cannot be exercised\");\n        uint256 amount = tempOption.strikePrice.mul(_qty);\n        _checkAllowance(amount, tempOption.quoteToken, tempOption.taker);\n        _checkEscrowBalance(tempOption.maker,tempOption.baseToken,tempOption.qty);\n        _burnOptionTokens(_tokenId,_qty);\n        require(IERC20(tempOption.quoteToken).transferFrom(tempOption.taker,tempOption.maker,amount),\"Transfer of quote token failed\");\n        _transferFromEscrow(tempOption.baseToken, _qty, tempOption.taker, tempOption.maker);\n        optionList[_tokenId].qty.sub(_qty);\n    }\n     \n    function getLatestTokenId() public view returns(uint256){\n        require(msg.sender == optionTokenAddress,\"Non whitelisted address cannot update token ID\");\n        tokenID.add(1);\n        return tokenID;\n    }\n    \n    function getOptionDetails(uint256 tokenId) public view returns(address,address,uint256,uint256,address,address,uint256){\n        option memory tempOption = optionList[tokenId];\n        return (tempOption.maker,tempOption.taker,tempOption.qty,tempOption.strikePrice,tempOption.baseToken,tempOption.quoteToken,tempOption.expiry);\n    }\n    \n    function getEscrowAddress() public view returns (address){\n        return EscrowAddress;\n    }\n    \n    function getPriceOracleAddress() public view returns(address){\n        return priceOracleAddress;\n    }\n    \n    function _checkEscrowBalance(address maker, address baseToken, uint256 qty) internal view{\n        require(Escrow(EscrowAddress).depositsOf(maker,baseToken) >= qty, \"Insufficient base tokens by maker in escrow account\");\n    }\n    function _burnOptionTokens(uint256 tokenId,uint256 qty) internal{\n        require(IERC721(optionTokenAddress).getApproved(tokenId) == address(this),\"contract does not have allowance\");\n       IERC721(optionTokenAddress).burn(tokenId, qty);\n    }\n    \n    function _checkAllowance(uint256 amount, address token , address owner) internal view\n    {\n        require(IERC20(token).allowance( owner,address(this)) >= amount,\"Insufficient Allowance\");\n    }\n    \n    function _canBeExercised(uint256 _tokenId,uint256 _qty) internal returns (bool){\n        option memory tempOption = optionList[_tokenId];\n        require(_tokenId < tokenID && _tokenId > 0, \"invalid tokenID\");\n        require(msg.sender == tempOption.taker, \"Only taker can excercise the option\");\n        require(_qty <= tempOption.qty, \"Option can't be exercised for quantity greater than it was issued for.\");\n        require(now < tempOption.expiry, \"Option has already expired\");\n        require (_getPrice(tempOption.baseToken,tempOption.quoteToken) > tempOption.strikePrice,\"Base Token price has still not crossed the strike price\");\n        return true;\n    }\n     \n    function _getPrice(address baseToken, address quoteToken) internal returns(uint256)\n    {\n        require(priceOracleAddress != address(0),\"Price Oracle Address is not set\");\n        uint256 basePrice = IOracle(priceOracleAddress).getPrice(baseToken, now); \n        uint256 quotePrice = IOracle(priceOracleAddress).getPrice(quoteToken, now);\n        uint256 price = basePrice.div(quotePrice);\n        return (price);\n    }\n    \n    function _transferFromEscrow(address token,uint256 amount, address payee, address maker) internal{\n        require(Escrow(EscrowAddress).withdraw(maker,payee,token,amount), \"transfer from escrow failed\");\n    }\n    \n    \n    function _transferToEscrow(address token, uint256 amount, address payer) internal{\n         require(_transferERC20(token,amount,payer,EscrowAddress), \"Transfer of tokens to escrow failed\");\n         Escrow(EscrowAddress).deposit(payer,token,amount);\n    }\n     \n     function _transferERC20(address token,uint256 amount,address _from, address _to) internal returns (bool){\n         return IERC20(token).transferFrom(_from,_to,amount);\n     }\n }",
  "sourcePath": "/Users/nikhilyadav/ethOptions/truffleProject/contracts/EthOptionsFactory.sol",
  "compiler": {
    "name": "solc",
    "version": "0.5.8+commit.23d335f2.Emscripten.clang"
  },
  "schemaVersion": "3.0.16",
  "updatedAt": "2019-10-16T14:50:06.057Z",
  "devdoc": {
    "details": "Contract to manage the creation of Options, excercising Options  * ",
    "methods": {
      "isOwner()": {
        "details": "Returns true if the caller is the current owner."
      },
      "owner()": {
        "details": "Returns the address of the current owner."
      },
      "renounceOwnership()": {
        "details": "Leaves the contract without owner. It will not be possible to call `onlyOwner` functions anymore. Can only be called by the current owner.     * > Note: Renouncing ownership will leave the contract without an owner, thereby removing any functionality that is only available to the owner."
      },
      "transferOwnership(address)": {
        "details": "Transfers ownership of the contract to a new account (`newOwner`). Can only be called by the current owner."
      }
    },
    "title": ": EthOptionsFactory"
  },
  "userdoc": {
    "methods": {}
  }
}