{
  "contractName": "PriceOracle",
  "abi": [
    {
      "constant": false,
      "inputs": [
        {
          "name": "token",
          "type": "address"
        },
        {
          "name": "price",
          "type": "uint256"
        }
      ],
      "name": "setPrice",
      "outputs": [],
      "payable": false,
      "stateMutability": "nonpayable",
      "type": "function"
    },
    {
      "constant": true,
      "inputs": [
        {
          "name": "token",
          "type": "address"
        },
        {
          "name": "",
          "type": "uint256"
        }
      ],
      "name": "getPrice",
      "outputs": [
        {
          "name": "",
          "type": "uint256"
        }
      ],
      "payable": false,
      "stateMutability": "view",
      "type": "function"
    }
  ],
  "bytecode": "0x608060405234801561001057600080fd5b506101a6806100206000396000f3fe608060405234801561001057600080fd5b50600436106100355760003560e01c8062e4768b1461003a578063449e815d14610088575b600080fd5b6100866004803603604081101561005057600080fd5b81019080803573ffffffffffffffffffffffffffffffffffffffff169060200190929190803590602001909291905050506100ea565b005b6100d46004803603604081101561009e57600080fd5b81019080803573ffffffffffffffffffffffffffffffffffffffff16906020019092919080359060200190929190505050610131565b6040518082815260200191505060405180910390f35b806000808473ffffffffffffffffffffffffffffffffffffffff1673ffffffffffffffffffffffffffffffffffffffff168152602001908152602001600020819055505050565b60008060008473ffffffffffffffffffffffffffffffffffffffff1673ffffffffffffffffffffffffffffffffffffffff1681526020019081526020016000205490509291505056fea165627a7a72305820f5ba7a6a2e4ab7b0b1fae3ce65a4579a8e15820ec68697dc4bd5f949192d9e0f0029",
  "source": "pragma solidity ^0.5.0;\n\ncontract PriceOracle {\n    mapping(address => uint256) list; //contract address to price wei mapping\n    uint256 queryTime; //useless xD \n    \n    function setPrice(address token, uint256 price) public\n    {\n        list[token] = price;\n    }\n    \n    function getPrice(address token,uint256) public view returns(uint256) {\n        return list[token];\n    }\n}",
  "sourcePath": "/Users/nikhilyadav/ethOptions/truffleProject/contracts/PriceOracle.sol",
  "compiler": {
    "name": "solc",
    "version": "0.5.8+commit.23d335f2.Emscripten.clang"
  },
  "schemaVersion": "3.0.16",
  "updatedAt": "2019-10-19T08:34:15.132Z",
  "devdoc": {
    "methods": {}
  },
  "userdoc": {
    "methods": {}
  }
}